:020000021000EC
:1090000000600020759301005D9301005F930100F3
:10901000619301006393010065930100000000006B
:109020000000000000000000000000006793010045
:1090300069930100000000006B9301006D93010033
:10904000F9C801006F9301003DCD01006F9301004D
:109050006F93010000000000B9CB01006F93010085
:109060006F9301006F9301006F9301006F930100F4
:109070006F9301006F9301006F9301006F930100E4
:109080006F930100E9A101006F9301006F9301004C
:1090900085A201006F930100551F02006F9301002C
:1090A0006F9301006F9301000000000000000000BA
:1090B0006F9301006F9301000000000000000000AA
:1090C00000000000000000000000000000000000A0
:1090D0000000000000000000000000000000000090
:1090E0000000000000000000000000000000000080
:1090F0000000000000000000000000000000000070
:10910000000000000000000000000000000000005F
:10911000000000000000000000000000000000004F
:10912000000000000000000000000000000000003F
:10913000000000000000000000000000000000002F
:10914000000000000000000000000000000000001F
:10915000000000000000000000000000000000000F
:1091600000000000000000000000000000000000FF
:1091700000000000000000000000000000000000EF
:1091800000000000000000000000000000000000DF
:1091900000000000000000000000000000000000CF
:1091A00000000000000000000000000000000000BF
:1091B00000000000000000000000000000000000AF
:1091C000000000000000000000000000000000009F
:1091D000000000000000000000000000000000008F
:1091E000000000000000000000000000000000007F
:1091F000000000000000000000000000000000006F
:10920000354936480A1A02D0072291438D4634491F
:1092100034480A1A06D00722914381F309880222B2
:1092200082F3148830483149314A00F044F831481B
:109230003149324A00F03FF831483249324A00F0B1
:109240003AF832483249334A00F035F83248334967
:10925000334A00F030F833483349344A00F02BF8F1
:1092600033483449344A00F026F83448344900225F
:1092700000F02CF833483449002200F027F8334836
:109280003349091A082902DB002202604160314A91
:1092900090471F481F49884205D00268043003B434
:1092A000904703BCF7E700208646EC4600200021EB
:1092B000294A9047FEE7884207D0521A05D0037822
:1092C00001300B700131013AF9D17047884202D068
:1092D00002700130FAE7704700600020005800205B
:1092E0000060002000600020844A02005C1B002017
:1092F000B81B0020C0930100C0930100AC25020000
:10930000844A02005C1B00205C1B00202427020012
:109310002427020024270200242702002427020019
:10932000242702002427020024270200844A020086
:10933000E04A0200B81B0020B81B0020B81B002028
:10934000982D0020982D0020982D0020982D002089
:10935000983500208B9301000DDA0100FEE7FEE74F
:10936000FEE7FEE7FEE7FEE7FEE7FEE7FEE7FEE7D5
:10937000704700BF0C4880470C484FF007018843F6
:1093800085460B488047FFF73BBF0A480A490B4A0E
:10939000884207D0521A05D0037801300B70013192
:1093A000013AF9D17047000071930100006000207C
:1093B000E9C3010010270200481B00205C1B0020AD
:1093C0007047000007B5044B0093044A402300F0A7
:1093D00032F803B05DF804FBE1930100B91B0020F3
:1093E0002DE9F84389461446B2B10F4B0F4E0325C1
:1093F000002743F00108224609EB0701002004F092
:109400008BFC0744241A48B933782BB14FF47A40C7
:10941000C047013D02D13570BDE8F88301233370A8
:10942000002CE8D1F8E700BF30270200B81B00206D
:10943000704704F0A5BCF0B595B01C46164608462A
:109440000D4602F0D9FE1A9B0D93CDE90864002465
:109450002346082205A928460A948DF82C400C942E
:1094600002F0E7FE079B0293069B03939DF81430DE
:109470008DF8114003F00302012A1DD1BDF81440FC
:10948000059EC3F3C203C4F383148DF81030A20009
:1094900008230EA9284602F0CCFEC6F3952608AB99
:1094A0000093224602AB0EA9304600F0FDFB284691
:1094B00002F0A6FE15B0F0BD022AF8D1BDF81640A4
:1094C000C3F3C203A4098DF810300827082C2646E0
:1094D00028BF08263B4632460EA9284602F0A9FEC0
:1094E000A41B08AB02AA31460EA8374400F040FC8A
:1094F000002CEBD1DBE70000014B01221A70704712
:109500003A1C00207047000070B50E4D06460FCD86
:1095100088B06C460FC495E80F00002E84E80F0059
:109520004FF00603084A0948009308BF0022694625
:1095300003F07CF908B100F0A9FD054B1E7008B0DE
:1095400070BD00BF44270200F99401005C1B00209D
:10955000F91B002007B5044B0093044A4023FFF792
:109560006AFF03B05DF804FB71950100FA1B00204F
:1095700038B50D4B0D4D002018700D4804782D5D49
:10958000D2B21C4665B1043004F000F808B100F016
:109590007DFD084B1A7812B12378002BFBD038BD23
:1095A0000C3003F0F9FDF1E73A1C002038250020CB
:1095B0005C1B0020F91B002008B50848084A037806
:1095C000D35C3BB1043003F07DFF0020BDE80840D0
:1095D000FFF79ABF0C3003F07BFDF6E75C1B002021
:1095E000382500200120FFF78FBF000038B50A4D55
:1095F000FFF71FFF0421284600F0C4FA074B01249F
:109600005C71FFF7EFFF042105F1100000F0BAFADA
:10961000034B5C7138BD00BFF0260200701B0020B8
:10962000781B0020037813F0040216D003F0030324
:10963000012B03D0022B09D0012070470A68008853
:109640000232C0F3831002440A60F5E70B684288D7
:10965000023303EB92130B60EEE7104670470000F5
:109660002DE9F04F87B000230446851C0DF107005B
:109670000F4690468DF8073000F0F8FF4548066821
:109680003E60D0E90132134401339B1B824600F255
:109690001C4600F5836900F21447AB421BD300223D
:1096A000B8F1000F70D0052363F3070264F3891249
:1096B000DAF80010DAF808309DF807000B400333A1
:1096C0000D444AF82320CAF8005000F0F3FF0120AF
:1096D00007B0BDE8F08F0121304602F00EF8484691
:1096E00002F024F8384602F021F8DAF80400DAF83B
:1096F00008B0029000EA0B0003300AEB800002A9D8
:10970000FFF790FF029B50BB0BEA03020AEB8202B9
:1097100003F1020CD2680392013303EA0B0B0AEB4C
:109720008B0B02F00302012ACDF808C0DBF80C1005
:1097300022D0022A16D08346384601F0FAFF10B133
:10974000029BCAF804305946304601F0D6FFDAE9E8
:1097500001231344DAF8002001339B1A9DE70BEA3A
:109760000300C9E7BDF80E309B0903334FEA114BE4
:109770000CEB93030293DFE7BDF80C30C3F38313C4
:109780004FEA114B6344F5E7062363F3070264F3E2
:109790009F528DE70C1D00200B4B0C48FF2210B58B
:1097A0009A600022C3F81824C3E90022C3F81424E5
:1097B00083F8202402F0D9FC044610B9044802F0D2
:1097C00067FD204610BD00BF0C1D00202C260200A6
:1097D0009427020030B50A4C71B10A4A0A49121B9B
:1097E000D20800239A4201D1002030BD31F8235025
:1097F000854202D00133F5E7034654F83300F4E71D
:1098000040260200F02602005C1B0020094B0139B3
:1098100003EBC000032909D8DFE801F00A020406BF
:1098200004207047007970474079704700207047E6
:109830000220704740260200034BD3E90030C31AD0
:1098400058425841704700BF0C1D00202DE9F043DD
:1098500087B0FFF7F1FF0646002840F0FB807E4D01
:10986000C5F81804BFF34F8F6868AC6802902040B9
:10987000033005EB800002A9FFF7D4FE029B18B16C
:10988000D5F81824002A5FD004EA0302991C01339A
:1098900005EB8202234005EB8303D268DB68049367
:1098A00002F00303022B0392029162D1BDF80E3045
:1098B0006A484FEA9318B8F1500FC14628BF4FF0DD
:1098C000500969F38F1309F10801ADF80E3002F069
:1098D00064FC0746002800F0A88002F08DFC03A974
:1098E00000230822384602F09AFC029924EA010675
:1098F0000136B600B14535D95FFA89F97EB3F6B2C3
:10990000A9EB0609214003315FFA89F4B146544EB0
:1099100005EB810108234A46384602F080FC36B147
:1099200009F1080322463146384602F078FC029BD2
:1099300008F1030803EB98030293D5F81834002BC1
:109940004BD1D5F810445BE02A689A4204D86A608B
:10995000304607B0BDE8F08304EA030088E74049D9
:109960003446D7E72140033108234A4605EB8101FD
:10997000DAE7012B59D1BDF80C303848C3F3831115
:10998000062928BF062161F3891302318900ADF849
:109990000C3002F002FC0746002846D002F02CFCF6
:1099A0000023082203A9384602F039FC0026BDF83E
:1099B0000C20C2F38312B300964203F10803BCD219
:1099C00002994A1C21400331029205EB81010422D5
:1099D000384602F024FC0136E9E7384602F010FC74
:1099E000FFF72AFF80F00100C6B2B1E7E3685B79B8
:1099F00023B1236839461B6820469847E3681C68F2
:109A0000002CF3D1384602F0FBFB0DF107008DF876
:109A1000074000F02BFED5F818340BB9029B6B60A1
:109A20009DF8070000F046FEDAE7D5F8104454B977
:109A30000C4B0D480D49C01AC008000440F002004C
:109A400000F06EF8CCE7236820469B689847E368EF
:109A50001C68ECE700267BE70C1D00202C2602008A
:109A6000181D00204026020068260200A0270200E0
:109A70002DE9F74F284C80460F46924601A9012256
:109A800018469B46D4F80890FFF7EAFD80B3019D85
:109A90000026A91C5E4506EB010233D100211F48B8
:109AA00001F0EAFD80F310006A1C02EA090204EBEF
:109AB0008202000405EA0903033340EA1840D0603B
:109AC00014F8232068F3C50204F8232034F8232077
:109AD00066F3891224F8232054F8232067F39F2289
:109AE00044F8232002F0F80242F0010204F8232097
:109AF00094F820341BB1FFF7A9FE0028FBD103B076
:109B0000BDE8F08F09EA020204EB82025AF826301F
:109B1000D3600136BEE700BF0C1D002028210020C5
:109B200000231A46FFF7A4BF07B50123019201AA3B
:109B3000FFF79EFF03B05DF804FB07B5CDE90023F6
:109B400002236A46FFF794FF03B05DF804FB1FB5DC
:109B5000CDE90123069B039301AA0323FFF788FFA6
:109B600005B05DF804FB1FB5CDE90023069B029309
:109B7000079B03936A460423FFF77AFF05B05DF85D
:109B800004FB000030B50F49D1F81024002314461F
:109B90003CB9C468237152B9C1F810042260184658
:109BA00030BDE46825799D4206D02468F0E7D2688C
:109BB000116821601060F2E701330A2BE7D14FF002
:109BC000FF33ECE70C1D0020094A38B50123D2F819
:109BD000104482F820341D4604B938BDE3685D7135
:109BE000236820465B689847E3681C68F4E700BF79
:109BF0000C1D0020037A052B10B50C460FD0437ABC
:109C000023B1084A0849204601F0F6FD07492046DD
:109C100001F0F2FD2046BDE8104001F0E2BD002A4F
:109C2000F8D0F3E7EB270200FF3D02000D28020009
:109C3000C38873B504460D4633B1144A00921449E3
:109C4000144A284601F0D8FD217A05291CD0637AF0
:109C50004BB1A088FFF7DAFD0F4B104953F82020D5
:109C6000284601F0C9FD227A0D4BA08853F82260E6
:109C70000021FFF7AFFD0B4903463246284602B0EC
:109C8000BDE8704001F0B8BD02B070BDEB27020026
:109C9000F8270200F0270200B8270200FF3D02006B
:109CA0001C280200102802002DE9F04385B01F4651
:109CB0000C9D002306460C46904695F80C902B739D
:109CC00029463846FFF7B4FFB8F1060F09D8DFE898
:109CD00008F00412181F283340003146284601F0CE
:109CE0008BFD002229463846FFF784FF85F80C904B
:109CF00005B0BDE8F08322683146284601F07CFDBE
:109D0000EFE7D4E900233146284601F075FDE8E786
:109D1000A36800933146D4E90023284601F06CFD86
:109D2000DFE7E3680193A36800933146D4E9002399
:109D3000284601F061FDD4E723690293E3680193AB
:109D4000A36800933146D4E90023284601F054FD6E
:109D5000C7E76369039323690293E3680193A368E8
:109D600000933146D4E90023284601F045FDB8E7C9
:109D700008292DE9F84F80460E4617461C463AD86A
:109D8000002593F80C901D7319461046FFF750FFFD
:109D9000DFF884A0DFF884B0AE422ED918F8052091
:109DA0005946204601F028FD0135082DF4D1184907
:109DB000DFF86CB0204601F01FFD4FF0000A564559
:109DC00020D918F80A507E2D03D8284608F000FB49
:109DD00000B92E252A465946204601F00DFD0AF10C
:109DE000010ABAF1080FEAD1012221463846FFF7ED
:109DF00001FF84F80C90BDE8F88F5146204601F031
:109E0000FBFCD1E70349204601F0F6FCE7E700BF81
:109E1000E6270200E4270200E2270200DC27020016
:109E2000E82702002DE9F04F394E87B04FF00009C6
:109E3000384B1B785FFA89F5AB4202D807B0BDE812
:109E4000F08F354BD3F800A01AF835000124D6E97D
:109E5000001EA0F12002C0F1200304FA02F224FA4D
:109E600003F3134304FA00FC009301EA0C0302938A
:109E7000009B0EEA03030393DDE9022313430AEB7D
:109E8000C50B41D0009B21EA0C012EEA0303C6E971
:109E9000001302F087FE1AF835502049A5F1200280
:109EA000C5F1200304FA02F224FA03F31343D1E9C3
:109EB00000C2AC40134004EA0C0105930024C3B275
:109EC000CDE90034009A0491C5F12003A5F12001E9
:109ED00022FA03F302FA01F848EA03081346AB40FA
:109EE0001F46DDE90434444508BFBB420CD1DBF812
:109EF00004304BB19BF801104A1E51425141081ADF
:109F0000414241412846984709F1010990E700BFC5
:109F1000F8210020C821002000220020F02100208C
:109F20002DE9F0418046204800F090FBD0BB012590
:109F3000A8F12004C8F1200325FA03F305FA04F47C
:109F40001C431A4BD3E9001205FA08F501EA05068D
:109F500002EA040756EA07001E461DD1404602F0F9
:109F600021FE134BD3E9001288B129432243C3E9F0
:109F70000012D6E900231C430E4B0B481968154309
:109F8000C6E900540022BDE8F04100F019BB21EA07
:109F9000050122EA0402EAE721EA050522EA0404AF
:109FA000C3E90054BDE8F081D0210020F821002051
:109FB000F0210020CC210020042A2DE9F3410546A0
:109FC0000C4616463AD902F02BFDD8B11C4B1D4960
:109FD0001D601D4BDFF884801C701C4B00221E602E
:109FE0000023C1E900231A49C1E90023013CE4B27E
:109FF00000260327FF2C0CD1164A1748002100F039
:10A00000CDFA03E002F0D4FC0028DFD002B0BDE8B6
:10A01000F08123B205EBC30201A992788DF80520E7
:10A0200015F833008DF8066042468DF8047002F092
:10A0300001FD013CE4B20028DCD0E7E70720E5E7BA
:10A0400000220020F0210020C8210020CC21002087
:10A05000F8210020259E01007C280200219F01009C
:10A0600070B5084D084E00242B789C4201D3002087
:10A0700070BD3368012113F8340002F04FFD013444
:10A08000F2E700BFC8210020002200201FB50021F8
:10A09000039001AA44F20100CDE9011100F004F897
:10A0A00005B05DF804FB000010B572B6FFF78CFD3B
:10A0B000FFF7CCFB0028FBD1104B114C1149E41ADF
:10A0C000E408240444F00100FFF72AFD0E4B1B684E
:10A0D000DB0700D500BE0D4944F00200FFF720FD6C
:10A0E000BFF34F8F0A490B4BCA6802F4E062134377
:10A0F000CB60BFF34F8F00BFFDE700BF40260200DB
:10A100006826020080280200F0ED00E08C280200A2
:10A1100000ED00E00400FA05094A53789178013314
:10A12000DBB2994208BF0023117899421FBF037028
:10A130005078182303FB002014BF04300020704720
:10A140000422002073B5054600240DF107000E46D9
:10A150008DF8074000F08AFA0DF10600FFF7DCFFEA
:10A1600090B10670094B9DF8062045605A709DF825
:10A17000070000F09FFA24B9054B4FF48012C3F892
:10A180000021204602B070BD0424F0E70422002024
:10A1900000E100E0024B4FF43C6043F0010318473C
:10A1A000A028020038B50C4B0C4C4FF40032C3F819
:10A1B000802001254FF48033C4F84833C4F80833B5
:10A1C0006560FFF7E7FF064BA56000241C60FFF702
:10A1D000E1FF044B1C7038BD00E100E000100140BD
:10A1E0002023002011230020F8B51F4B1F491B68B6
:10A1F0000025C1F84051C1F84451C1F84851C1F897
:10A200004C51C1F80051C1F804514BB3D1F8044589
:10A2100017490968641A24F07F442F461A68A2423D
:10A2200009D8A41A15441A7CDE691AB11F74D3E93F
:10A2300005209047AEB90F4A0F4B11781B788B421F
:10A2400005D10133DBB2022B08BF00231370127853
:10A250000A4B43F822500A4B4FF48012C3F80021F6
:10A26000F8BD3346DAE700BF242300200010014088
:10A27000202300201D2300201C2300201423002065
:10A2800000E100E02DE9F04FA14AA24913780978D6
:10A29000A14D994285B03CD00133DBB2022B08BFFF
:10A2A000002313709D4912789D4B0F6853F82200CC
:10A2B0003B1823F07F4300220B602B6816461446A0
:10A2C000944613B942B12B6006E0196881420ED959
:10A2D00002B12B60091A196001272B68DFF848A228
:10A2E00001934FF00008BEB9DFF844B266E0401AAF
:10A2F0000C44D968C3F800C0D3F81CE031B13A1956
:10A3000022F07F42C3E90121DE611E46012273462D
:10A31000D7E700263746E0E73446F6697F4A6368A8
:10A320001268DFF810C2A068991A21F07F416145D8
:10A3300000F2A68001442160012222742A680023D1
:10A34000C4E90133E361002A40F0A3802C60CAE72E
:10A350005A1C9BF80210D2B291428BF8002004BF25
:10A3600000228BF80020182202FB03B31A799C68A4
:10A37000022A1CD0032A12D0012A1FD1207CE8B95E
:10A38000D3E90312A2605A69E2609A69654BA2613F
:10A390001B78002B0CBF0B4603466360BEE7002210
:10A3A0002B681146002B67D142B12B6006E029686B
:10A3B0000A468946002A5AD1002323749BF80030AC
:10A3C0009BF801209A42C3D12B68B8F1000F04D149
:10A3D000019A9A4201D1002F43D0002B73D0D3F8B9
:10A3E00000A0514D4D4BD5F804751C68DFF848812D
:10A3F0003E1B98F8003026F07F4603369BB94FF499
:10A400008033C5F84433C5F80433484B4FF4003269
:10A410004FF00109C3F880211A60C5F80090FFF7DA
:10A42000B9FE88F80090B2452CBF5444A41924F01A
:10A430007F44C5F84045D5F80435DB1B23F07F4346
:10A44000E41B033324F07F44A3420AD9D5F8043532
:10A45000C5F84035FFF79EFE344B4FF40032C3F889
:10A460000021304B00221A7005B0BDE8F08F9442F5
:10A470002CD09146D2699DE719740122DB6991E7DE
:10A48000D31A23F07F43834234BFC31A00232360CF
:10A4900052E721681368994213D8591A1160E26192
:10A4A00054E7091AD8691A4638B103461868884231
:10A4B000F7D3401A1860184613462160E061DC614A
:10A4C00011E71346F2E7FFF76DFECAE74C4511D1DD
:10A4D000CB692B6073B9DFF844E00120CDE90212AB
:10A4E000CAF80800CEF800300E4B1870FFF752FE85
:10A4F000DDE902121368D269C9F81C2012B1106894
:10A50000034413602B68994218BF4FF0010853E7CA
:10A510001C2300201D2300202423002020230020B2
:10A5200014230020102300200010014000E100E06F
:10A5300004220020FEFF7F001123002008B5FFF752
:10A5400031FE104B00200B2218809A700E4B1860C1
:10A550000E4B18700E4B18700E4B4FF48012C0212A
:10A56000C3F8802183F814131A6002F18042A2F527
:10A570006F22C2F8080583F81113074BD2F804259F
:10A580001A6008BD04220020242300201C23002080
:10A590001D23002000E100E020230020074B9B78D2
:10A5A0004BB132B128B10368187C20B959745A6193
:10A5B0007047072070470820704700BF0422002022
:10A5C0002DE9F7431E4FBB7805460E469046A3B3D0
:10A5D00098B304292FD943697BB3437C0024012B12
:10A5E0000DF107000CBF8946A1468DF8074000F029
:10A5F0003DF80DF10600FFF78FFDD0B10123037088
:10A60000104B4560D3F80435C0E90498C0E9023620
:10A610009DF806307B709DF8070000F04BF824B9D8
:10A62000094B4FF48012C3F80021204603B0BDE867
:10A63000F0830424EFE70724F7E70824F5E700BFD9
:10A64000042200200010014000E100E0064A927858
:10A650003AB130B1426922B1002202740221FFF7FF
:10A6600071BD0820704700BF0422002070B5EFF3D1
:10A67000108672B60C4A946801239CB993600B4B08
:10A680000B4DD3F8801029401160C3F88050D3F8E7
:10A69000841051604FF0FF32C3F88420047006B973
:10A6A00062B670BD0370FAE72823002000E100E0E5
:10A6B000FC06FFBD084B9A6810B55AB150B9EFF3CC
:10A6C000108172B6054A1C6814605C68546098601A
:10A6D00001B962B610BD00BF2823002000E100E0F0
:10A6E00070B5064D0646002455F8043B0BB13046C4
:10A6F00098470134042CF7D170BD00BF40230020DF
:10A70000033080B240F2FD33984230B51FD8124B6F
:10A710001A783AB91C895D892C440444A4B2B4F572
:10A72000806F0AD31A7DA2B99A8BDC8B2244024433
:10A7300092B2B2F5806F0CD201220A801446142224
:10A7400002FB04335A8910445881002030BD09208F
:10A75000FCE70720FAE700BF742300200B4A0C4BEC
:10A760005188142000FB0131CB6833B904204968BB
:10A7700010700122074801F0C3BA0523064913707F
:10A7800002238B80012200230968F3E7582300206D
:10A7900074230020481B00203C24002007B5002320
:10A7A00005490093054A09680548082301F012FA93
:10A7B00003B05DF804FB00BF3C240020B428020075
:10A7C000481B002007B50023009301460823034AD5
:10A7D000034801F0FFF903B05DF804FBAC28020068
:10A7E000481B002013B500230C46009301460423A8
:10A7F000074A084801F0EEF938B9074B142202FB6A
:10A8000004340123237402B010BD0E20FBE700BF07
:10A81000A8280200481B00207423002037B50A48EE
:10A820000A4B42689C8819685388032503330570D6
:10A830009BB2002000909B0001EB8401044801F0D2
:10A84000C9F903B030BD00BF582300203C240020CC
:10A85000481B002010B50146044800F041FE1C22B0
:10A860000446002107F01DFE204610BD28240020CC
:10A8700068B10268084B9A4209D14068074B984278
:10A8800007D0013398420CBF0120032070470320FA
:10A8900070470020704700BFDEC0ADDEFE011EF134
:10A8A0004388033300EB8303994209D382884FF630
:10A8B000FF739A4206D00088B0FA80F040097047D2
:10A8C00002207047012070472DE9F8430223DFF88A
:10A8D00060800B800D46174600F5805600F1080495
:10A8E0004FF00109B4420FD2236801330CD0314636
:10A8F0002046FFF7D5FF48B10FB187F80090022836
:10A900000BD14FF480632B80BDE8F883A368D8F89F
:10A910000020934201D9C8F800302B8862880333A5
:10A9200013442B806388033304EB8304DAE700BF0E
:10A930006C230020154A142303FB002070B50B681C
:10A9400044680D4604F58056ABB15C88033403EBD4
:10A950008404B4420DD2236801330AD03146204624
:10A96000FFF79EFF01280BD010F0FF0F05D0022843
:10A97000EFD1002003E00834EBE72C60012070BD2C
:10A980006388033304EB8304E3E700BF74230020F0
:10A99000436873B504460D4663B3234AD1688B42BE
:10A9A00028D31269934225D813F0030022D11F4AFD
:10A9B0002189128991421DD121689A68914219D149
:10A9C0001B4A51688B4203D901F580518B420DD34C
:10A9D000926993420CD902F58052934208D2012326
:10A9E0002B80B0FA80F0400902B070BD0346F7E753
:10A9F0000A20F6E700232B801E46019601A928882D
:10AA0000FFF798FF30B92B8801339BB2012B2B80C5
:10AA1000F3D9E9E7019B226899689142EED163601E
:10AA2000024B1B892381DFE7481B002058230020AD
:10AA3000742300202DE9F8431C461C4B1B78064666
:10AA40000F4615466BB372B36CB3DFF868804FF0F6
:10AA50001409A388012B01D90A2020E009FB03F384
:10AA600018F803302BB92146A088FFF763FF20B9FF
:10AA70002060A3880133A380EBE723681EB1998887
:10AA800032889142EFD11FB119883A889142EAD1B8
:10AA90009A68C5E90023064B1B892B810020BDE87D
:10AAA000F8830220FBE70520F9E700BF50230020D0
:10AAB000582300207423002008B5074B191D58881F
:10AAC000FFF738FF18B1BDE80840FFF7A7BEBDE8A3
:10AAD0000840FFF743BE00BF582300202DE9F04F88
:10AAE000A04FDFF8A49289B00646B8463B6823B968
:10AAF00049469D4800F02EFD3860D8F8005029786E
:10AB00004B1E052B00F2FA80DFE813F006005E0012
:10AB10005E00EE00EE005C0126B1944B00225A600C
:10AB20000124ECE02B79032B1DD8DFE803F015029C
:10AB30002A358F490B78022B084619D00B7D022B42
:10AB40004FF0010316D114225343C2180020C854F9
:10AB50005068FFF737FE03E001232B71FFF71EFE5D
:10AB6000002800F0BC80814B00225A600E24C6E011
:10AB70000023E8E77D4A13700023536041F61D541B
:10AB8000BDE07C497C48002302222B718A8001228F
:10AB9000096801F0B5F8E3E7764C00262E712068CD
:10ABA000734DFFF70FFE754BD4F800C05A8814237D
:10ABB0005343EA18EE5451682160A188C2F804C0DA
:10ABC00011810222A280CBE7B5F814A0AA7DDFF89C
:10ABD000A0B1AEB1022AEB8806D9142101FB0AB15B
:10ABE000DA1C088902440A81142202FB0ABAC3F55E
:10ABF0007F43BAF80A20FD331344AAF80A308FE7DE
:10AC0000142303FB0AB318895C6804EB8004062A4A
:10AC100068D8DFE802F0274D35431D59040041F69E
:10AC20001D54AA7DEB88022A06D9142101FB0AB122
:10AC3000DA1C088902440A81142202FB0ABAC3F50D
:10AC40007F43BAF80A20FD331344AAF80A3056E0CD
:10AC50004B484C4900234360AB690360FFF798FE03
:10AC6000002871D00223AB75002300930423EA1857
:10AC70002146414800F0AEFF002830D00E24D0E736
:10AC80002B69002B14BF03230123AB750023009312
:10AC900005F10C02042304F10801EAE70123AB7576
:10ACA0000022EB8800929B002A6904F10C01E0E786
:10ACB00003290CBF05230623AB750023009304234F
:10ACC00005F10802E118D4E70623AB752D4B19886E
:10ACD0002B4B5868FFF786FD04460028A1D109B028
:10ACE000BDE8F08F0F249CE7002E7FF419AF2B797D
:10ACF000012B4BD0E3B1022B3FF440AF0F241422C1
:10AD0000002103A807F0CDFB41F61D539C4208BF6C
:10AD10000024D8F8003004941A78023A042A00F289
:10AD20000581DFE812F0E600F20015011D012401A3
:10AD300002232B710DF10A01EB68039303A8CDE9FF
:10AD40000466FFF725FE08B90A24D8E70498BDF881
:10AD50000A108388EB8003882B81FFF743FD0446AC
:10AD600027E000BF7023002028240020502300206B
:10AD7000742300203C240020481B0020582300207E
:10AD8000342300204824002068230020DFF8FCA1A1
:10AD900003AA53463146A81DFFF74CFE044658B996
:10ADA000BAF804100498FFF71DFD04460A2C3FF47E
:10ADB000E5AE002CA3D192E708223146504607F0B9
:10ADC00070FBF3E7002E7FF4ABAE6B4B1A7BAAB19E
:10ADD0001E731A78013A062A90D801A151F822F080
:10ADE00087AE0100ADAE0100CBAE0100D1AE0100D7
:10ADF000FDAC0100D7AE0100E9AE01001A78072AC8
:10AE0000E7D801A151F822F029AE0100D3AD01002D
:10AE1000D3AD01004FAE010063AE010083AE01006F
:10AE200083AE01004BAE01001A89544901321A81E8
:10AE300000225A801A730A78B2FA82F252099A7280
:10AE40000A7DB2FA82F25209DA72012207E04C4915
:10AE500058688A884088033202448A8002221A7025
:10AE6000B7E7464C5A884649142505FB0242086854
:10AE7000546850608888108102228A800C60062203
:10AE8000EDE70722EBE79A7A32B9DA7A8AB900223B
:10AE90001A705A805A6071E6384900229A72CA685C
:10AEA000002AF2D1097C0029EFD05A80FFF704FE76
:10AEB00055E70022DA72314A116A0029E7D192F887
:10AEC0002420002AE3D00122EFE7FFF7A7FC46E7A2
:10AED000FFF744FC43E7294A5B88142101FB032365
:10AEE0005868FFF76FFC3AE700225A60FFF756FCFC
:10AEF00035E701228DF80C201A89ADF818209A88C0
:10AF0000DB68ADF81A20059310E002228DF80C20C2
:10AF10001A89ADF818209A88ADF81A20DA689B7D56
:10AF200005929A1F534253418DF81C3003A8FFF736
:10AF3000D7FB002649461348C8F8006000F035FBEF
:10AF40000121114800F0E4FB00287FF4CFADC6E6F4
:10AF500003228DF80C20DA88ADF818201A89CFE783
:10AF60000422DB888DF80C20ADF81830DEE70523CD
:10AF70008DF80C30DAE700BF58230020742300203E
:10AF80003C24002028240020382400204C240020C9
:10AF90004068FFF7A3BD000008B50121044800F098
:10AFA000A1FB18B9BDE80840FFF798BD08BD00BF78
:10AFB000382400202DE9F3419846354B1B7806468E
:10AFC0000D46002B5BD000295BD009884FF6FF733C
:10AFD000994258D06B88002B55D06B689B0754D191
:10AFE0004AB92F890DF102013846FFF789FB30B1CC
:10AFF00002B0BDE8F08113885788ADF8023001A88F
:10B00000FFF728FC044658B9BDF80230214A142144
:10B0100001FB032358890338C01B58810820E7E748
:10B0200000238375BDF8023083826B68036180F86A
:10B0300000800121184800F060FB2B882381B8F1C3
:10B04000030F6B88A38004BF0423A3754FF0000592
:10B0500008BF3368E06008BFA361E780658101A98C
:10B060000E4800F067FA36B1E36833600C4B756048
:10B070001B89B5723381FFF78FFF0020B8E70220EC
:10B08000B6E70520B4E70420B2E70320B0E700BF2D
:10B0900050230020742300206C230020282400204B
:10B0A0005823002008B5084B1A68042A09D01968EB
:10B0B000064A42F821000121184600F01EFB00203C
:10B0C00008BD0C20FCE700BF4424002040230020E2
:10B0D0002DE9F04F14228BB000210DEB020007F098
:10B0E000E0F9754A137803F0FF01CDE901123BB195
:10B0F00005A8FFF7F5FA002738460BB0BDE8F08F3A
:10B10000029B181D00F00FFB0028F4D140F6F873E5
:10B110004FF080521B68694C581C04BF684B1B6879
:10B120001269591C04BF3023534323610022A3F545
:10B1300040536449E360204600F018FD039407463D
:10B140000028D9D11C238C225F496048DFF8889100
:10B15000DFF8888100F08FF9BA463D464FF0030BC7
:10B160003C46039BDE68564430463146FFF780FB81
:10B1700001284DD042B2002A36D0032822D106F54C
:10B1800080520868013040F08A8004319142F8D141
:10B19000D9F800203AB902220123C9F80060A9F8C1
:10B1A000042001930CE014226243022008EB020108
:10B1B00008F80200464A4E60548001340881A4B267
:10B1C00045F001050AF5805ABAF5405FC9D1BBF1D7
:10B1D000010F98BF0025EDB2022D03D0062D35D00A
:10B1E000002D3CD10B2787E71421614308EB0100B8
:10B1F00008F8012001F11002083146604244414440
:10B200003046FFF761FB45F002050134A4B2D9E7EF
:10B21000019B63B11422624308EB0201022008F88B
:10B2200002000134D9F800204A600881A4B200224B
:10B230002849C9F800603046FFF746FBB9F80420FA
:10B24000022A0CBF042208221543BBE7029A0123FD
:10B25000137005A800235360FFF742FA4CE704A8D7
:10B26000FFF7F8FAC8B10123013D03700A2D09D890
:10B27000DFE805F006080608070807080F110F00A9
:10B280000023037104A9114800F054F9FFF784FE6C
:10B2900032E70323F5E70223F3E708272CE70BF156
:10B2A000FF321FFA82FB1422624308EB02014E6058
:10B2B000032108F80210A8E750230020481B0020B3
:10B2C00014100010A82A02009C230020282400202B
:10B2D00058230020402400203C2400207423002018
:10B2E00073B50D460446C8B1C1B10DF10601FFF7B3
:10B2F0004FFBA8B10B4BBDF806006668142202FB99
:10B30000003001210C3000F0F8F963682E600C3336
:10B310006B600123A372002002B070BD0520FBE723
:10B320000A20F9E77423002013B50446A8B10DF1F3
:10B330000601FFF72DFB90B10B4ABDF80630142132
:10B3400001FB0323DA6862B1A27A52B1DA68002005
:10B35000013ADA60A07202B010BD0520FBE70A20B6
:10B36000F9E70620F7E700BF74230020022300223C
:10B37000FFF720BE18B103230022FFF71BBE0520F4
:10B3800070470000104B1B7813B50446ABB14FF665
:10B39000FF73984213D001A8FFF75CFA88B1052328
:10B3A000037001230371C48001A9084800F0C2F8AA
:10B3B000FFF7F2FD002002B010BD0220FBE70420E1
:10B3C000F9E70820F7E700BF5023002028240020D9
:10B3D0000E4B1B7807B5A3B101A8FFF73BFA90B15C
:10B3E0000623037001A90A4800F0A4F8094B1A7853
:10B3F0000AB101221A73FFF7CFFD002003B05DF8F8
:10B4000004FB0220FAE70820F8E700BF50230020E1
:10B41000282400205823002007B5ADF80600ADF819
:10B4200004100DF1060001A9FFF704FB03B05DF85D
:10B4300004FB07B51346ADF806000A4600200DF1DF
:10B440000601FFF7F7FA03B05DF804FB07B51346F2
:10B45000ADF806000A460DF106000021FFF7EAFAF2
:10B4600003B05DF804FB20B119B103680B60002044
:10B4700070470520704710B561B1B2FBF3F403FBD0
:10B480001424A4B244B9C0E9001484608281C38149
:10B49000204610BD0E20FCE70920FAE782B050E8F4
:10B4A000022FC188B2EB324F4FF0000317BF92B2A8
:10B4B00041EA014142EA014104E04268B2EB324F05
:10B4C00008BF012340E80212002AE8D18DF80730B6
:10B4D0009DF80730002B0CBF1120002002B07047F0
:10B4E00037B550E8013F9DB2C48925448489A542FF
:10B4F00028BF2D1B0489A54202BFBFF32F8F002256
:10B5000007E0C5EA030540E80154002CE9D14FF0FB
:10B5100001028DF803200193019B9DF803200B602D
:10B5200002F0FF0322B10B880068184403B030BD5D
:10B530001846FBE70A884B889A4209D150E8012F48
:10B54000C2EA024240E80123002BF7D101207047F4
:10B550000020704737B550E8023F1FFAA3F5C488B2
:10B56000A54202BFBFF32F8F00220DE0C4892544FE
:10B570008489A54228BF2D1BC3EA054540E8025433
:10B58000002CE8D14FF001028DF803200193019BBC
:10B590009DF803200B6002F0FF0322B14B88006886
:10B5A000184403B030BD1846FBE70A884B889A421E
:10B5B00009D150E8022FC2EA224240E80223002BC0
:10B5C000F7D1012070470020704701F01F024B099E
:10B5D0000121914000EB830000F063B84B0910B5E6
:10B5E00001F01F040121A14000EB830000F04EF8A0
:10B5F000E04000F0010010BD01F01F0301229A405D
:10B600004B0900EB8300D14300F061B84B0901F016
:10B610001F0150F82300C84000F0010070472DE9D9
:10B62000F0474E1E760980460F460136002558F831
:10B63000254008EB8509E44394FAA4F4B4FA84F4B1
:10B640004FEA451A202C06D10135AE42EFD83C46D0
:10B650002046BDE8F0875444A742F5D9214640462C
:10B66000FFF7BCFF0028F3D0D9F80040E44394FA78
:10B67000A4F4B4FA84F4E5E750E8002F0B4640E860
:10B68000003C9CF0000FF7D11046704750E8002FA7
:10B6900042EA010340E8003C9CF0000FF6D110465E
:10B6A000704750E8003F43EA010240E8002C9CF05C
:10B6B000000FF6D11046704750E8002F02EA010350
:10B6C00040E8003C9CF0000FF6D11046704750E86F
:10B6D000003F03EA010240E8002C9CF0000FF6D185
:10B6E0001046704750E8002F02EB010340E8003C91
:10B6F0009CF0000FF6D11046704750E8003F03EB76
:10B70000010240E8002C9CF0000FF6D11046704773
:10B7100050E8003FA3EB010240E8002C9CF0000F32
:10B72000F6D1104670470121FFF7B0BF0121FFF7A6
:10B73000B8BF0021FFF7C0BF10B590B1D0E9012319
:10B7400001689B1ADBB20A60013BDBB2FF2B026887
:10B7500002D10020107110BD11684C1C14600B70D8
:10B76000F2E70E20F7E737B5054600240DF1070094
:10B770008DF80740FEF77AFF2A686B6811689942D6
:10B780000ED9481E106011F8014CEB68298A01FBA4
:10B790000434AB6811791B1ADBB2994238BF1371BC
:10B7A0009DF80700FEF786FF204603B030BD37B591
:10B7B000054600230DF107000C468DF80730FEF713
:10B7C00055FF2A681368591C1160E968641A298AB0
:10B7D000B4FBF1F41C709DF80700FEF76BFF03B09B
:10B7E00030BD826810B504462AB14369016800691A
:10B7F00098470023A36010BD0EB403B5039921B18F
:10B8000004AB01AA019300F075F802B05DF804EBF7
:10B8100003B070470A2938B504460D4602D10D2100
:10B82000FFF7F8FFA3682268591CA160D554D4E93A
:10B8300001329A4204D32046BDE83840FFF7D1BF19
:10B8400038BD00002DE9F84F9946DDE90A43174657
:10B85000824688460A460126BA420FD24E4538BF74
:10B860004E4613F0010B01D164B900240125B9F152
:10B87000010F1AD909F1FF397D43F8E7B2FBF7F25E
:10B880000136E9E79B070ED5B9F1000F0CBF302553
:10B890002025A642EAD2013C29465046FFF7BAFFCE
:10B8A000002CF6D1E1E72025F3E7B8FBF5F39F4242
:10B8B000E2D9DFF83C90B8FBF5F3504619F80310D5
:10B8C00005FB1388FFF7A6FFB5FBF7F3BD4207D2D0
:10B8D000BBF1000F02D00CB1A64203D3BDE8F88F34
:10B8E0001D46E8E720215046013CFFF793FFF2E7B1
:10B8F000BC2802002DE9F74F054617468846002967
:10B9000000F0308118F8011B49B92B7B002B00F0A7
:10B910002981284603B0BDE8F04FFFF762BF252913
:10B9200040F0C080002698F800302D2B424608F1E8
:10B93000010823D0302B24D02B2B25D000242A2BF8
:10B9400002F1010123D13B681A1D1B683A601C44B7
:10B950000A4613782E2B26D101324FF000091046EB
:10B9600010F8011BA1F1300CBCF1090F1DD80A23FE
:10B9700003FB0913A3F130090246F0E746F0010684
:10B98000D1E746F00206CEE746F00406CBE711F811
:10B99000013CA3F130000928DBD80A2202FB043461
:10B9A000303C0A46CBE74FF0000912F8011B01F0CA
:10B9B000FB0068289046F8D069290ED04AD858294B
:10B9C00064D006D825296DD098F80030002B99D185
:10B9D0009BE7632962D06429F6D13A68D2F800A0C7
:10B9E000111D8AEAEA723960A2EBEA724FF0010B8C
:10B9F000092A5BDCCB4538BFCB462CB1BAF1000F2E
:10BA000001DB720700D5013CB30702D5B9F1000F85
:10BA100004D0F00702D4002C4ED10024BAF1000F5C
:10BA200052DACAF1000A2D212846FFF7F3FE06F08C
:10BA30000302022A05D1B9F1000F02D1002C47D12F
:10BA40000024CDE900464B460A2251462846FFF71E
:10BA5000F9FEB9E773294CD014D87029B4D13B68EA
:10BA60001A1D3A60302128461C68FFF7D3FE782162
:10BA70002846FFF7CFFE00220823CDE900322146F9
:10BA80001022E3E775292BD078299DD139680A1D4A
:10BA90003A60CDE900464B46102228E03B681A1D6B
:10BAA00019783A602846FFF7B5FE8DE70A230BF1B7
:10BAB000010BB2FBF3F29BE7A345AFD2202128464E
:10BAC000013CFFF7A7FEA6E77107B0D52B21ABE736
:10BAD000A345B6D230212846013CFFF79BFEADE7D7
:10BAE0003968CDE900460A1D3A604B460A220968CA
:10BAF000ACE73B681A1D3A6016F00106D3F800A0C7
:10BB000020D1BAF1000F03D0504606F01FFD0646C3
:10BB1000B44200D9C4B90AF1FF3A1EE02846013602
:10BB2000FFF778FE1AF806100029F7D1A642BFF4F5
:10BB30004BAF002C3FF448AF20212846013CFFF7D3
:10BB400069FEF3E70026EDE720212846013CFFF7D8
:10BB500061FEDDE72846FFF75DFE1AF8011F0029A8
:10BB6000F8D131E703B0BDE8F08F000007B50B4610
:10BB700088B9124B1248134AC01A0E23C00800930A
:10BB8000114B0004114940F00100FDF7E0FF0E20C9
:10BB900003B05DF804FB4BB9084B09480C4AC01AC6
:10BBA000C0080E2300930004074BEBE703601B68FB
:10BBB000114603B05DF804EB184700BF40260200B1
:10BBC0008026020079290200CC2802007E2902008A
:10BBD000F52902002DE9F34188B93D4B3D483E4A25
:10BBE000C01AC0080E243D4B009400043C4940F0AC
:10BBF0000100FDF7ACFF204602B0BDE8F0814AB974
:10BC0000334B3448374AC01AC0080E24000400944D
:10BC1000324BEBE7D0F800C0BCF1000F09D12C4B40
:10BC20002C48314AC01AC0080824000400942B4B49
:10BC3000DCE74BB9264B27482C4AC01AC008092418
:10BC400000040094254BD1E74768D7F80480B3FB84
:10BC5000F8F708FB17374FB11D4B1E48244AC01A8E
:10BC6000C0080924000400941C4BBFE78F0709D0CB
:10BC7000174B18481F4AC01AC0081024000400942B
:10BC8000164BB3E712F0030F09D0114B11481A4AB3
:10BC9000C01AC008102400040094104BA6E7C7681F
:10BCA000B9420BD34C1E05691C44AC4206D8DCF8E3
:10BCB0000C40A44602B0BDE8F0416047044B054883
:10BCC0000E4AC01AC008102400040094034B8DE7EC
:10BCD000402602008026020079290200DE280200A8
:10BCE0007E290200FB290200EF290200AE29020092
:10BCF000012A02002B2A0200432A0200662A0200BF
:10BD0000F7B580B92A4B2B482B4AC01AC0080E241D
:10BD10002A4B009400042A4940F00100FDF717FF68
:10BD2000204603B0F0BDD0F800C0BCF1000F09D12F
:10BD30001F4B2048234AC01AC0080824000400945E
:10BD40001E4BE8E74AB91A4B1A481F4AC01AC008E6
:10BD5000092400040094194BDDE74768D7F800E098
:10BD60000EF1FF370F4209D0114B1248174AC01A83
:10BD7000C008102400040094104BCCE7C768B942F7
:10BD80000CD34C1E05690EFB0244AC4206D8DCF80D
:10BD90001040A44603B0BDE8F0406047044B05489E
:10BDA0000B4AC01AC008102400040094034BB2E7E9
:10BDB000402602008026020079290200F1280200B4
:10BDC0007E290200EF290200AE29020004290200A8
:10BDD0002A29020029DF704728DF704770B5036801
:10BDE0009D6886B004460E466DB114220021684657
:10BDF00006F057FBA3680593237901962BB1012B1D
:10BE00000DD06846A84706B070BD01238DF80030FC
:10BE100023690293E368039363690493F1E70223C0
:10BE20008DF80030E3681B030293F5E7084670477E
:10BE300000207047024B187A003018BF012070476D
:10BE4000F0240020034B187A0122B0FA80F05A74D3
:10BE500040097047F024002008B510461A4606F045
:10BE6000F7FA002008BD000008B51422002104489C
:10BE700006F017FB0348FFF711FB002008BD00BFC9
:10BE8000F0240020E024002010B5094C094B436049
:10BE90002046FFF748FC40B906F042F81C23207406
:10BEA0008C2205490548FFF7E6FA002010BD00BFC7
:10BEB000F02400209C2A020054240020E0240020CA
:10BEC00070B5244C244E237A25463BB92349244897
:10BED000FFF740FB306008B9606070BD3468022332
:10BEE0002B72237973B1012B24D020460321FFF755
:10BEF00075FF00232B726B6018491948BDE870402C
:10BF0000FFF753BBD4E90523D21AB2F5805F28BFEF
:10BF10004FF48052D4E903109208012A38BF01225D
:10BF200019441844FFF756FF50B11128DDD1012301
:10BF30002B72D2E7D4E903031844FFF74DFFF3E770
:10BF40002B7C002BC9D10146BDE87040022000F0D7
:10BF500009B800BFF0240020082500200425002097
:10BF6000E024002038B5831E012B45D8234C237ACA
:10BF7000002B41D0022B09D1032830D0204B1B6865
:10BF80000022E2601A793AB1012A22D0637C7BBB9D
:10BF9000BDE83840FFF794BFD3E905128D1AB5F517
:10BFA000805F94BF521902F580529A619142EDD19F
:10BFB00002284FF0000308BF19462372104B18BF28
:10BFC0000D211868FFF70AFF0E490F48FFF7EDFA39
:10BFD000DCE71A6901321A615B699A42E7E7E368B4
:10BFE0000133082B01D8E360D0E70023E360DFE7EB
:10BFF000BDE8384005F084BF38BD00BFF024002004
:10C000000825002004250020E024002000F0FD0386
:10C01000012B08D1044B00225A74421E5042504159
:10C020001874FFF74DBF7047F024002010B5064C80
:10C03000201DFFF778FB28B9637C1BB9BDE81040D1
:10C04000FFF73EBF10BD00BFF02400202DE9F341F3
:10C0500080460D460F4801A916461F46FFF740FAD5
:10C060000446A8B11C22002106F01BFA2D0B012367
:10C07000237101A9C4F80080A760E56066610548E6
:10C08000FFF758FAFFF7D2FF002002B0BDE8F081B9
:10C090000420FAE7E02400202DE9F7438146884692
:10C0A000104801A917461E46FFF71AFA0446B0B118
:10C0B0001C22002106F0F5F900250A9BA36001A9C6
:10C0C0002571C4F80090C4E9037866610548FFF75C
:10C0D00031FAFFF7ABFF284603B0BDE8F083042038
:10C0E000FAE700BFE02400202DE9F047B0F8069001
:10C0F0004479D2F800A09DF8208009FB04F4043CA8
:10C1000006460AEB0300A0420F4688BFA4EB030AD1
:10C11000191DC2F800A0B1FBF9F509FB15114DB9C5
:10C12000A9EB0104544528BF5446BAF1000F04D1CD
:10C13000BDE8F0873668013DF1E704317B197018DE
:10C140002246B8F1000F0ED001461846AAEB040AA9
:10C1500006F07EF9D145254436684C464FF0000183
:10C1600028BF5446E1E71946F0E7FFF7E5BAF8B50E
:10C1700046790146721E0546002393422D6803D37B
:10C180000024A64202D8F8BD0133F6E70F6828461E
:10C19000FFF70DFB01343946F3E72DE9F843068A32
:10C1A000CD1C0746FFF7DFFA043E35440446B5FBD5
:10C1B000F6F5F0B14FF48073EDB28380C680013D97
:10C1C000076081464FF00008A84512D23846FFF7B5
:10C1D000CAFA064648B163790133637108F1010870
:10C1E000C9F8000007608146EEE72046FFF7BFFF71
:10C1F00034462046BDE8F88301210430FFF77DBABC
:10C2000010B5012104460430FFF782FA10F0FF0F49
:10C2100004D12046BDE81040FFF7A9BF10BD1FB5EF
:10C2200003920022009203AAFFF75EFF05B05DF8BB
:10C2300004FB1FB503920122009203AAFFF754FFEB
:10C2400005B05DF804FB41DF70470000064B10B5F8
:10C2500000241C70054B1C60BFF35F8F0449054828
:10C2600000F01FF8204610BD1425002018250020DE
:10C27000C82A02000C25002008B505F051FE18B1AF
:10C28000BDE80840FFF7DFBF20BF40BF20BF08BDAB
:10C29000836800225A609A60C3E90422DA601A6057
:10C2A00070470B684A684360934208BF00230160EF
:10C2B00008BF43607047436843B1026891685268A1
:10C2C0000B449342436004BF002343607047000067
:10C2D00010B50D49A1F59472914201D800200FE0EC
:10C2E0008B1ADB1003EBD3735B1002EBC30452F821
:10C2F0003330834205D802D204F10802ECE76068CB
:10C3000010BD2146E8E700BF182C020008B5FFF772
:10C31000DFFF024B002808BF184608BDDD2A0200D7
:10C32000094B1B78062B0CD1084B1B681A0708D148
:10C33000074B186800F0F000A0F130035842584154
:10C3400070470020704700BFE00F00F0E40F00F0DE
:10C35000E80F00F00F4B1B680A2B03D10E4B1B6834
:10C36000012B14D90D4B1B78062B10D10C4B1B68DD
:10C370001A070CD10B4B186800F0F003302B06D0D5
:10C3800000F0E000A0F140035842584170470120FE
:10C39000704700BF3001001034010010E00F00F0C2
:10C3A000E40F00F0E80F00F00C4B1B78062B10D1C7
:10C3B0000B4B1B681A070CD10A4B186800F0F003EE
:10C3C000302B08D000F0E000A0F140035842584163
:10C3D0007047002070470120704700BFE00F00F059
:10C3E000E40F00F0E80F00F008B5FFF7DDFF28B11B
:10C3F000814B824A1B68C3F304231360FFF790FF4D
:10C4000010B17F4B7F4A1A60FFF7A4FF28B17E4B23
:10C410007E4A1B68C3F342331360FFF781FF20B1EC
:10C420007B4AD36823F08073D360FFF793FF40B15A
:10C430004FF080430022C3F80C21C3F81021C3F849
:10C440003825FFF76DFF10B1724B03221A60FFF71A
:10C4500067FF40B1704B05221A6001229A670022E3
:10C460009A603F225A606D4B1B680A2B03D16C4BBC
:10C470001B68012B0DD96B4B1B78062B09D16A4B1E
:10C480001B68190705D1694B1B6803F0F003502B9B
:10C4900046D14FF08052664BD2F80414C3F82015F1
:10C4A000D2F80814C3F82415D2F80C14C3F82815D0
:10C4B000D2F81014C3F82C15D2F81414C3F83015A0
:10C4C000D2F81814C3F83415D2F81C14C3F8401568
:10C4D000D2F82014C3F84415D2F82414C3F8481530
:10C4E000D2F82814C3F84C15D2F82C14C3F8501500
:10C4F000D2F83014C3F85415D2F83414C3F86015C8
:10C50000D2F83814C3F86415D2F83C14C3F868158F
:10C51000D2F84014C3F86C15D2F84424C3F870253F
:10C520003E4B1B680A2B06D13D4B1B681BB9414B88
:10C53000FB22C3F81825FFF737FF28B13E4B3F4ACF
:10C540001B6803F04F031360FFF704FF48B14FF07F
:10C550008043D3F80024D20744BF6FF00102C3F830
:10C5600000242E4B1B68062B08D12D4B1B68062B75
:10C5700001BF334A136843F4806313604FF0102304
:10C58000D3F80022002A03DBD3F80432002B2FDA81
:10C590002C4B0122C3F80425D3F80024002AFBD039
:10C5A0004FF010221521C2F80012D3F80024002AFF
:10C5B000FBD04FF010231522C3F80422214B1A465A
:10C5C000D3F800140029FBD00021C3F80415D2F8D9
:10C5D0000034002BFBD0BFF34F8F1B491B4BCA68A5
:10C5E00002F4E0621343CB60BFF34F8F00BFFDE75F
:10C5F000174B184A1A6008BD24030010403501404B
:10C6000074C007400DF0ADBA440200103C05004074
:10C61000F0ED00E0A0050040105600403001001091
:10C6200034010010E00F00F0E40F00F0E80F00F01C
:10C6300000C0004000F0004058020010E40E00402E
:10C640003C17004000E0014000ED00E00400FA0566
:10C65000801B00200090D003054A4FF0A043105CDF
:10C66000D3F8103523FA00F0C04300F00100704702
:10C67000D22F02001D280BD01E280BD01F280BD054
:10C6800005280BD01B280CBF04204FF0FF3070474B
:10C690000020704701207047022070470320704738
:10C6A000014B185C704700BFD22F020038B5074C11
:10C6B000051E04F1080318BF1C4623682BB11A6835
:10C6C00022605B6828469847F7E738BD242500209C
:10C6D00020B9054B01225A70FFF7E8BF012802D1AB
:10C6E000014A9070F8E770471C25002020B9034BE1
:10C6F00001225A70FFF7DABF704700BF1C250020E7
:10C7000038B50B4C237883B90A486360A360236172
:10C71000E36000F0C7F8054605F002FC08B900F038
:10C72000CDF801232370284638BD8525FBE700BFDF
:10C730001C250020D1C6010037B50B4C00230DF19C
:10C7400007008DF80730FDF791FFE368013BE360D8
:10C75000E56815B900F0C4F8A5709DF80700FDF76D
:10C76000A9FF03B030BD00BF1C250020012813B570
:10C7700009D018B103281CD002B010BD0F4B012204
:10C78000C3F88020F8E70E4C00230DF107008DF868
:10C790000730FDF76BFF23780BB9FFF7B1FFE368B4
:10C7A0009DF807000133E3600123A370FDF782FFCA
:10C7B000E2E700F083F8FFF7BFFFDDE700E100E00C
:10C7C0001C2500201FB503788DF8003043680193C5
:10C7D00083688DF80830C3680393054A054B6846A3
:10C7E00053F8213052F82110984705B05DF804FB4A
:10C7F00030250020342500201FB503788DF8003047
:10C800004368019383688DF80830C3680393054A31
:10C81000054B684653F8213052F82110984705B06F
:10C820005DF804FB3025002034250020F0B5184BBE
:10C83000077891F81DE043F82720164B16460A6941
:10C8400043F82720144B03F807E00C4684460FCC2E
:10C8500089B06D460FC594E80F0085E80F00049776
:10C86000BEF1000F0AD0002E0C4A694608BF3246BE
:10C870000CF1040000F064FD09B0F0BD002E084A80
:10C88000694608BF32460CF10C0000F067FBF3E785
:10C89000342500203025002038250020C5C70100A0
:10C8A000F9C70100044A137923B90121106091806E
:10C8B00018467047852070473C250020074B1A68B2
:10C8C000D2075FBFC02283F8002301221A604FF015
:10C8D00080430122C3F81825704700BF00E100E043
:10C8E000044B01221A604FF08042D2F81834DB0367
:10C8F000FBD470470C000040154B07B51A687AB19D
:10C9000000221A601B680093009B4FF080430122B5
:10C91000C3F808230F4B587910B95A711B68984710
:10C920000D4B1A6882B100221A601B680193019BAB
:10C930004FF080430222C3F80823064B1B680120F6
:10C9400003B05DF804EB184703B05DF804FB00BFCB
:10C95000000100403C2500200401004000F180401F
:10C9600000F5C040002382B0036003680193019B7F
:10C9700002B07047800000F1A040D0F8003723F4E7
:10C980004033C0F80037D0F8003743EA0141C0F81F
:10C9900000177047054B4FF0FF32072843F820205F
:10C9A00084BF1B1883F84C20704700BF442500202B
:10C9B00010B5174C94F85D3043BB04F134032021CB
:10C9C000FF22013911F0FF0103F8012BF9D1C8B2A0
:10C9D000FFF7E0FF01310D29F9D1042200210D48B4
:10C9E00005F05FFD0C4BC02283F8062340221A603D
:10C9F0004FF4BE70FFF7B2FF084B4FF00042C3F890
:10CA00000423012384F85D30002010BD0820FCE7DA
:10CA1000442500209D25002000E100E0006000404A
:10CA2000034B93F85D00003018BF0120704700BF32
:10CA300044250020F0B5374B1C1894F93440002CE5
:10CA40001C4664DA8D78C5F34005002D0BBF082322
:10CA500000230D260826B34201D10420F0BD54F86E
:10CA6000237001373FD1261844F8232086F834304C
:10CA700015B9E21882F84C008A78550713D4D60706
:10CA800033D5820002F1A042D2F8005725F002050A
:10CA9000C2F80057204EC50800F007070122BA402F
:10CAA000775D3A4372558A780D7812F0020225D0EC
:10CAB0009B0003F1804303F5C0430202D3F8101535
:10CAC00021F4473121F44071C3F810152D04D3F837
:10CAD000101502F4F85205F440352A430A43C3F80E
:10CAE00010250020BAE70133B5E74D7800F5E07274
:10CAF0004FF0A046AD0046F82250CBE7083B234458
:10CB000093F8541041EA851583F85450E9E708205A
:10CB1000A4E700BF442500209D25002038B51F4C08
:10CB2000251895F93420072A17DD224492F84C1075
:10CB3000890903290CD14FF0A043D3F81035C34025
:10CB400013F0010F08BF0221BDE83840FFF712BF04
:10CB5000012914BF03210221F6E7D3B2072B1CD809
:10CB6000930003F1804303F5C043D3F8100540F070
:10CB70000100C3F8100502F14000800080B2FFF709
:10CB8000EDFE51B195F9343054F823302BB1012327
:10CB900003FA02F2024BC3F8042338BD44250020F7
:10CBA000006000404FF0A043D3F8103523FA00F0A6
:10CBB00000F00100704700002DE9F04F85B000241F
:10CBC0005A4D01944FF48072012102F1804303F524
:10CBD000C04390B21B68012B06D1D5F804330B4239
:10CBE00002D0FFF7BBFE0C430432B2F5907F4FEA50
:10CBF0004101EAD14E4B1B68012B0AD14FF4BE70A4
:10CC0000FFF7ACFE4FF0A04344F00044D3F81035DA
:10CC1000019314F0FF0F1AD0464F0025012634422D
:10CC200010D0AB0003F1804303F5C043D3F81005E7
:10CC3000D3F8101557F8253023B1C1F30141C0F3E3
:10CC4000042098470135082D4FEA4606E7D1002C0D
:10CC500064DA00224FF0FF33CDE90223354D01277E
:10CC60004FF0000A344E54464FF0A04816F9012BFD
:10CC7000531C46D0D2B222F0C0094FEAD90104A811
:10CC8000084402F0070310F804CC07FA03F31CEA87
:10CC9000030F36D005EB090C92099CF934C055F806
:10CCA0002CB0BBF1000F0AD1032A2AD10DF1080ED6
:10CCB0001EF801C04CEA030C0EF801C001E0032A83
:10CCC000F4D009F5E07110F80C0C58F82110184256
:10CCD000C1F3014105D0022913D1032A0BD111461A
:10CCE00004E003290DD1032A05D102214846FFF7AC
:10CCF00041FE0134E4B2BBF1000F02D011464846B8
:10CD0000D8470AF1010ABAF1050FAFD134B14FF09B
:10CD1000A043019AD3F81035934202D105B0BDE883
:10CD2000F08F0193029B03939AE700BF00600040DD
:10CD30007C6100404425002098250020014B1B68A1
:10CD4000184700BFA42500200E4B984237B50D466A
:10CD500002D0002003B030BD00230DF107008DF894
:10CD60000730FDF783FC084B1C7914B901221D60C4
:10CD70001A719DF80700FDF79DFC002CE9D01120E9
:10CD8000E8E700BF00200040A4250020034B9842A4
:10CD900001BF034B00221A601A7170470020004047
:10CDA000A42500200023435082B043580193019BE7
:10CDB00002B070470A4610B54FF48E71FFF7F2FFCC
:10CDC000136A9168C95C136A01331362C0F81C15B9
:10CDD00010BD8B690A4610B54FF4847123B9FFF773
:10CDE000E1FFD0F8183510BDFFF7DCFF536AD168BA
:10CDF000D0F81805C854536A01335362F3E70000B2
:10CE00001FB501238DF80030044BCDE90110D3E9A3
:10CE100000126846904705B05DF804FBAC25002081
:10CE200030B54C4AD2F8043313F4007F85B0154670
:10CE30004FD0D2F82431002B4BD04FF492711046D2
:10CE4000FFF7B0FF4FF40173C2F80833424B93F879
:10CE5000291009B9012151603E4902228DF80020B4
:10CE6000D1F88024C1F8802403929A690292DA688A
:10CE700001920022C3E906226846D3E900129047D6
:10CE80003448D0F81C315BB133490A6A4B699A4285
:10CE90000A464BD291F82830002B47D1FFF78AFF82
:10CEA0002C4AD2F8443193B14FF4A2711046FFF7E7
:10CEB00079FF294B93F8291009B1012111609A6972
:10CEC0002AB100229A61586AD968FFF799FF05B024
:10CED00030BDD5F804335B07D2D5D5F80831002B27
:10CEE000CED01D4C1B482146FFF773FF636AA26931
:10CEF0009A422346C4D1E269E1684AB12369E360FA
:10CF00000023606AA261E3616362FFF779FFB7E71C
:10CF100094F829200AB901226A600E4A4FF4017080
:10CF2000C2F8080300229A61586AEEE74FF48E7146
:10CF30000848FFF737FF51690029B1D0002302915B
:10CF400091688DF80030019153616846D2E9001371
:10CF50009847A5E700200040AC2500202DE9F843C4
:10CF6000564F047991462C2202FB0472064692F831
:10CF70002A200D46002A40F09A8051490068FFF7A8
:10CF8000E3FE8046002840F0958029683368481CFD
:10CF90000BD04FF0A04001228A40C0F8082501F5CF
:10CFA000E0724FF0030C40F822C06868421C1FBFBB
:10CFB00000F5E0724FF0A04C4FF0000E4CF822E06C
:10CFC000AA6995F814C0C3F824256A7DBCF1010F45
:10CFD0004CEA0202C3F86C25C3F81405C3F80C151B
:10CFE0001DD1AA68511C1FBF02F5E0714FF0A0408F
:10CFF0004FF0000C40F821C0E968481C0BD04FF0FE
:10D00000A04C01208840CCF8080501F5E0704FF0F5
:10D01000030E4CF820E0C3F80815C3F810252C23A4
:10D020006343FA18C2F804902A69FA50B9F1000F64
:10D030002AD04FF48E7130682D7FFFF7B3FE306831
:10D040004FF4A271FFF7AEFE32681E4BC2F80433F4
:10D05000120B51B20029A8BF01F160404FEA4513FD
:10D06000BABF194802F00F0500F56140DBB2B4BF4A
:10D07000435580F8003302F01F02012303FA02F245
:10D080004909124B43F8212033680422C3F80025D4
:10D090002C2303FB04730022C3E9062283F8292012
:10D0A0005A61012283F82A204046BDE8F8834FF0F8
:10D0B0000808F9E74FF01108F6E700BFAC2500209B
:10D0C00021CE01008000020014ED00E000E100E04C
:10D0D000F8B5047900682D4D0023C0F800352C23E5
:10D0E00003FB04535B6873B1294BC0F80833020B90
:10D0F00053B201215B0902F01F0201FA02F2203350
:10D10000244941F82320D0F80C65D0F81415D0F844
:10D110000835D0F810254FF0FF37BE42C0F814751F
:10D1200018BF06F5E076C0F80C75C0F80875C0F8B1
:10D1300010751EBF4FF0A0474FF0020C47F826C0F5
:10D140004E1C1FBF4FF0A04601F5E071022746F8C4
:10D150002170511C1FBF4FF0A04102F5E072022662
:10D1600041F822605A1C1FBF03F5E0734FF0A04244
:10D17000022142F82310FFF709FE2C2303FB04547D
:10D18000002384F82A306360F8BD00BFAC2500207E
:10D190008402020000E100E02DE9F047214F06790A
:10D1A0004FF02C0909FB067480466569002D37D1C4
:10D1B0006261A16025624FF48E71006884F8285086
:10D1C000FFF7F0FDD8F80000012383602146FFF748
:10D1D000F1FD6368A14693B9D8F800A0226A63699B
:10D1E0009A4212D3D8F80030D3F81C21002AFBD081
:10D1F0000122DA602C2303FB0676002373612846A4
:10D20000BDE8F08794F8283043B9DAF81C31002BD8
:10D21000F8D049465046FFF7CDFDDFE70F25E9E797
:10D220001125ECE7AC2500200023435082B0435881
:10D230000193019B02B070471FB501238DF80030A8
:10D24000044BCDE90110D3E900126846904705B0C0
:10D250005DF804FBD82500207FB5374AD2F8246159
:10D26000002E48D010464FF49271FFF7DDFF0223E5
:10D270008DF80030D2F88034C2F880340393D2F8AD
:10D280003C3502932D4BDA6801920022C3E9062255
:10D290006846D3E900129047274AD2F844317BB15F
:10D2A0004FF4A2711046FFF7BFFF244B996939B1C3
:10D2B0000021C3E90611D968D2F83C05FFF7BCFF8D
:10D2C0001D4AD2F82031A3B14FF490711046FFF7F8
:10D2D000ABFF1A4B596961B1D2F84C15029100228B
:10D2E00099688DF8002001915A616846D3E90012CF
:10D2F000904704B070BDD2F81031002BCCD04FF461
:10D3000088711046FFF790FF0C4BD2F83C059969E5
:10D310008842C1D1DC69D96864B1D2F8005225F0E5
:10D320002005C2F800521A699C61DA60DE61FFF7DD
:10D3300083FFB1E79C61FAE700200040D825002078
:10D340002DE9F8435A4F06799146242202FB0672D2
:10D35000044692F820200D46002A40F0A28055494C
:10D360000068FFF7F1FC8046002840F09D802968A6
:10D370002368481C0BD04FF0A04001228A40C0F81F
:10D38000082501F5E0724FF0030C40F822C06868F0
:10D39000421C1FBF00F5E0724FF0A04C4FF0000E92
:10D3A0004CF822E0AA6995F814C0C3F824256A7DD8
:10D3B000BCF1010F4CEA0202C3F86C25C3F80C154E
:10D3C000C3F814051DD1AA68511C1FBF02F5E071F6
:10D3D0004FF0A0404FF0000C40F821C0E968481C15
:10D3E0000BD04FF0A04C01208840CCF8080501F587
:10D3F000E0704FF0030E4CF820E0C3F80815C3F8B6
:10D40000102524237343FA18C2F804902A69FA50AD
:10D41000B9F1000F34D04FF4887120682D7FFFF7E9
:10D4200003FF4FF490712068FFF7FEFE4FF49271F6
:10D430002068FFF7F9FE20684FF4A271FFF7F4FEB1
:10D4400022681D4BC2F80433120B51B20029A8BF49
:10D4500001F160404FEA4513BABF184802F00F05CA
:10D4600000F56140DBB2B4BF435580F8003302F0F1
:10D470001F02012303FA02F24909114B43F821204C
:10D4800023680822C3F80025242303FB0673002227
:10D49000C3E906225A61012283F820204046BDE8F4
:10D4A000F8834FF00808F9E74FF01108F6E700BFDE
:10D4B000D825002059D201001003020014ED00E02D
:10D4C00000E100E0F8B5047900682D4D0023C0F8B4
:10D4D0000035242303FB04535B6873B1294BC0F868
:10D4E0000833020B53B201215B0902F01F0201FA5B
:10D4F00002F22033244941F82320D0F80C65D0F8FB
:10D500001415D0F80835D0F810254FF0FF37BE427B
:10D51000C0F80C7518BF06F5E076C0F81475C0F8B1
:10D520000875C0F810751EBF4FF0A0474FF0020CF1
:10D5300047F826C04E1C1FBF4FF0A04601F5E07112
:10D54000022746F82170511C1FBF4FF0A04102F581
:10D55000E072022641F822605A1C1FBF03F5E073F7
:10D560004FF0A042022142F82310FFF70FFC2423C2
:10D5700003FB0454002384F820306360F8BD00BF2F
:10D58000D82500201003020000E100E001F0604314
:10D59000B3F1005F2DE9F041074632D11B4B06790C
:10D5A000242505FB063598466C6964BB6A61A96051
:10D5B00000684FF49071FFF737FE4FF4AC71386894
:10D5C000FFF732FE3B686A69A968C3F84415C3F8DF
:10D5D000482501229A606A6862B9D3F82021D3F8FD
:10D5E000584152B9002CF8D00F24242303FB06869F
:10D5F000002373612046BDE8F081002C18BF0F2482
:10D60000F3E71024F6E71124F4E700BFD825002043
:10D610002DE9F04781460D46FFF72CF80428044613
:10D6200004D8012D04D025B3022D2FD0BDE8F087FA
:10D63000194D47003A18A918AE5C4A7852B1DFF884
:10D640006880164842464FF40041FCF7B9FF08B91C
:10D6500088F800903B192B449A78114B1A55002EEC
:10D66000E4D0104B1B68002BE0D03046BDE8F047FB
:10D6700018470A48FCF7EAFF074B04EB440213443F
:10D680009E78074B1B5DB342D0D1E8E7024B00EB1D
:10D6900040041C446678E2E7202600200026002093
:10D6A0003426002030260020FC25002002210078AE
:10D6B000FFF7AEBF042801D8FEF7CEBF00207047A9
:10D6C0000020704708B5114B10F0020019601BD004
:10D6D0000F4B10480E221A700F22DA7010229A7126
:10D6E00011225A7212221A73052140F26662FCF767
:10D6F00063FC48B9FCF7B4FC30B90146064A074858
:10D70000BDE80840FCF74ABF08BD00BF3026002036
:10D7100020260020FC2F0200ADD60100243002009C
:10D72000042813D8012A0BD1012908D100F10E02D7
:10D73000D2B200EB40000C4B1A540020704700227C
:10D740000129F6D04BB24BB1022901D00720704716
:10D75000054B00EB400018444270EEE7024900EB35
:10D76000400008448270E8E720260020042808B51D
:10D7700012D8FEF795FF800000F1A040D0F80037E6
:10D7800023F44033C0F80037D0F8003743F4403377
:10D79000C0F80037002008BD0620FCE708B50122CC
:10D7A00002210020FFF7BCFF08B1072810D1072293
:10D7B00002210120FFF7B4FF08B1072808D100219A
:10D7C0000A220846FFF7ACFF10B1072808BF002067
:10D7D00008BD00000388102B10B502D0112B1ED0FD
:10D7E00010BD1A4C2168B1B901220846FFF798FF15
:10D7F00008B1072824D1072202210120FFF790FF5A
:10D8000008B107281CD1042202210020FFF788FF5D
:10D8100008B1072814D1236801332360E0E70B4ADD
:10D820001368013B1360002BDAD1FFF7B7FF002824
:10D83000D6D0074B1B68002BD2D0BDE8104018474C
:10D84000034B1B68002BE6D09847E4E740260020F6
:10D850003C26002008B50020FFF788FF08B1062805
:10D8600006D10120FFF782FF10B1062808BF002073
:10D8700008BD00000D4B10B518600C4629B1012001
:10D88000FFF718FF40B102232370094B1B6853B9FF
:10D89000BDE81040FFF782BFFFF70CFF08B10B2374
:10D8A000F2E72070F1E7002010BD00BF3C26002009
:10D8B0004026002076DF70477ADF70477CDF7047B4
:10D8C0008FDF7047FCF7E2BB0388212B13B50446BA
:10D8D00035D005D8102B17D0112B0AD002B010BDAF
:10D8E0003B2B01D0562BF9D11321A088FFF7E2FF83
:10D8F00020E0174B17481849C01AC008000440F030
:10D900000300FCF70DF9E9E7114B12481349C01A5F
:10D91000C008000440F00300FCF702F90720FFF7FD
:10D92000CFFE08B1FCF7B2FB0D4BA1880D48198062
:10D9300002F0A2F80028D1D0FCF7A8FBCEE7002324
:10D9400001A98088ADF80430FFF7BAFFF2E700BF05
:10D95000402602006826020028300200363002000D
:10D96000881B00200C27002008B503784BB9054B15
:10D970003B211888FFF79EFF18B1BDE80840FCF76F
:10D9800085BB08BD881B002008B598B1032815D1B8
:10D990000B4B0C480C49C01AC008000440F00300AF
:10D9A000FCF7BEF80220FFF78BFE38B1BDE8084057
:10D9B000FCF76CBBBDE8084004F056BC08BD00BFD6
:10D9C00040260200682602007830020008B50321D4
:10D9D000044800F0D6FC18B1BDE80840FCF756BB7F
:10D9E00008BD00BF4426002010B5044603F044FBE8
:10D9F000204603F067F923780C2B03D1BDE81040D3
:10DA0000FFF7E4BF10BDFCF741BB000000B54FF4C9
:10DA10000041ADB00020FBF7BFFE08B1FCF736FBBC
:10DA2000FBF7E4FDFCF78AFD08B1FCF72FFBFEF7DE
:10DA30000DFC08B1FCF72AFB04F0F4F908B1FCF77F
:10DA400025FB002301A90120019304F0B3FA08B1DA
:10DA5000FCF71CFB01A804F05DFB08B1FCF716FB0A
:10DA600011235C488DF8003004F070FD594982B2F2
:10DA70006846FFF723FF08B1FCF708FB00210822E6
:10DA800001A804F00EFD54494FF0C87301A8CDE978
:10DA90000113FFF711FF08B1FCF7F8FA00214F4816
:10DAA00001F016FF08B1FCF7F1FAAC22002101A841
:10DAB00004F0F7FC02238DF8043040F20163484A79
:10DAC000ADF806300123ADF8143006928DF88030A1
:10DAD0004FF4967244F25063CDE9232301A9414BE0
:10DAE00041482A9300F0DBFB08B1FCF7CFFA012193
:10DAF0003D4800F0D1FB3D4B3D48019301A901F0A9
:10DB0000A9FF08B1FCF7C2FA1C22002101A804F009
:10DB1000C8FC00234FF42032CDE90132ADF81230B9
:10DB20004FF470228DF81430324B03920693032287
:10DB3000314B8DF8102001A8079300F059FE08B171
:10DB4000FCF7A4FA02F066FD08B1FCF79FFA052283
:10DB5000002101A804F0A5FC019B03F07C42274BA7
:10DB6000134301939DF8083023F0030343F00303AC
:10DB700001A88DF8083002F0E7FD08B1FCF786FA3D
:10DB80001F4802F0C9FD08B1FCF780FA01A804F0B3
:10DB9000BDFB1C4C1C4B1D49E41AE408240444F052
:10DBA00003042046FBF7BCFF9DF804307BB1184905
:10DBB0002046FBF7B5FF02F01FFE08B1FCF766FA3E
:10DBC000FBF744FE0028FBD1FEF756FBF8E7FFF712
:10DBD000FDFEF5E7413002005000A000FC260020C9
:10DBE000841B002089D9010044260020C5D80100EB
:10DBF0000C27002069D9010007DA01003107100362
:10DC0000E9D90100682602004026020051300200D6
:10DC10006B3002000369C1688B429DBF8268D218D5
:10DC200002F1FF3203F1FF3394BF501A581A7047C4
:10DC30002DE9F041D0E9027405463E1B406896424A
:10DC400020448846144404D904F002FCEC60BDE88A
:10DC5000F0813246E41B04F0FBFB224608EB060190
:10DC60006868F1E72DE9F843C56806468946174616
:10DC70004FF000083469B3687068A54228BFE41803
:10DC8000013C621B5C1BBC4228BF3C46944228BF3F
:10DC9000144649462844224604F0DAFBB36825447A
:10DCA000AB4208BF00253F1BA044A144F560E1D171
:10DCB0004046BDE8F883000010B5114C114AA2613E
:10DCC0000223C4E90433104BE361A2644FF40073F0
:10DCD0000E4A2362E264002310220D49A362E01D74
:10DCE0006362E362A3656365E365226504F00CFC8F
:10DCF0000849204604F008FC2023A37110BD00BF92
:10DD0000182700208A300200A0270020902700203A
:10DD10009330020097300200F8B5184C182300FB2E
:10DD2000033503FB00402544C46A012C0F46164608
:10DD300011D024B1022C1BD000242046F8BD284667
:10DD4000FFF768FFB042F8D3324639462846FFF75E
:10DD50006FFF3446F1E72846FFF75CFF8642344602
:10DD600028BF0446224639462846FFF761FFE4E70C
:10DD70002846BDE8F840FFF775BF00BF1827002010
:10DD8000FFF79ABF6DDF704779DF70477DDF70471F
:10DD900064DF70472DE9F04F85B000250E9CBDF87B
:10DDA0003CB027880191804691469A462E46B8F8A5
:10DDB0000020B2420CDC3DB12288013AD21B92B263
:10DDC000FF2A3BD80AF80720002005B0BDE8F08FF5
:10DDD000D8F8042052F82600039000220DF10B0120
:10DDE00003A8FFF7D5FF0028EFD19DF80B204A4587
:10DDF00022D12288002D14BF0020022002EB09014D
:10DE0000014459451ADC45B9013292B2019B228086
:10DE10000AF8023022880132228022880DF10B019B
:10DE2000524403A8FFF7B4FF0028CED121889DF803
:10DE30000B200A44228001250136B8E70C20C4E7F4
:10DE40002DE9F341089CBDF824501746CDE9004563
:10DE5000022206469846FFF79DFF50B9434610221E
:10DE600039463046CDE9084502B0BDE8F041FFF73C
:10DE700091BF02B0BDE8F0812DE9F04F0023168874
:10DE8000138090F82D3085B007460D46144653B3E5
:10DE9000082E01D80C2027E102A8FFF773FF002805
:10DEA00040F0228123880822EA54238801339BB260
:10DEB0001B222380EA542088013080B22080062271
:10DEC0000DF10901284404F0C3FA23889DF80820C5
:10DED00006339BB212F0FE0218BF01222380EA54DF
:10DEE000238801332380BB78FBB123880433B342FA
:10DEF000D0D802A8FFF748FF002840F0F58023881B
:10DF00000322EA54238801339BB219222380EA5466
:10DF10002388BDF8082001339BB2E9182380EA5416
:10DF2000120A4A70238802332380FA789AB1238830
:10DF3000D91CB142AED80221E954238801339BB2E7
:10DF400001212380E95423880B449BB22380EA54A7
:10DF500023880B4423807A68AAB12388D91CB14254
:10DF600098D8022192F90020E954238801339BB20A
:10DF70000A212380E954238801339BB22380EA5489
:10DF80002388013323803B89002B40F0A1803B8A0A
:10DF90005BB1CDE900462B460722032107F11000B3
:10DFA000FFF74EFF002840F09F803B8B5BB1CDE92F
:10DFB00000462B461522142107F11800FFF740FFF9
:10DFC000002840F091803A6A002A40F09080D7F80B
:10DFD0002480B8F1000F30D0B8F804302188981CA4
:10DFE0008A1C0244B2423FF655AFFE283FF652AFBC
:10DFF00003336B54238801339BB2FF222380EA54FE
:10E00000238801339BB22380B8F80020EA54E91832
:10E01000120A4A702088023080B22080B8F80420AA
:10E020005AB1D8F8081000296BD0284404F010FA2F
:10E030002388B8F804201344238097F82C30002B51
:10E0400040F09A80387800284ED03B88012B58D079
:10E05000228802F1020CB4453FF61CAF012805D11D
:10E060007B78023313449E42FFF414AF023EB61A8B
:10E07000B6B202A905EB0C00ADF80860FFF786FE0A
:10E0800090BB3978BDF80820022900F0BA807B786F
:10E09000934202D3B24240F2B280012940F0B380F1
:10E0A0009BB29E42C0F0AF80ADF808300821BDF8A9
:10E0B0000830FE2B3FF6EEAE22880133AB542288A7
:10E0C000013292B22280A9542288134423800BE0AB
:10E0D000CDE900462B460622022107F10800FFF792
:10E0E000AFFE00283FF453AF05B0BDE8F08FB4F8A1
:10E0F00000C00CF10603B3423FF6CCAE11880529EF
:10E1000001D80720F0E76FF4486E01EB0E039BB2D5
:10E110004FF27D3E7345F4D95388052BF1D96FF446
:10E120004860181880B27045EBD94FF6FF708142F5
:10E1300003D0834201D09942E3D8052305F80C307F
:10E14000238801339BB212212380E95423880133B1
:10E150009BB223801188E954E818090A417023888A
:10E1600002339BB223805288EA54E918120A4A709B
:10E170002388023323802AE7BB6A002BC1D04FF0EB
:10E1800000094FF00C0A4FF0160B97F82C305FFA8D
:10E1900089F293427FF656AFB96A0AFB02F201EBAD
:10E1A0000208B8F80430981CFE283FF673AE2088A9
:10E1B00003332B54238801339BB2238005F803B02B
:10E1C000238801339BB223808A5AEA54E918120A41
:10E1D0004A702088023080B22080B8F804205AB1FA
:10E1E000D8F8081000298CD0284404F031F923888D
:10E1F000B8F804201344238009F10109C5E7092177
:10E2000055E7B242FBD9ADF808604FE770B5C0B131
:10E210004AB116880024B44203D305196D789D4293
:10E2200008D0A14201D800200BE0055D01352C4447
:10E23000A4B2F0E7A142F6D9A31C1380005D013817
:10E2400080B270BD13B50023ADF8063013460DF152
:10E2500006020446FFF7DAFF10B1BDF806002044BD
:10E2600002B010BD72DF704773DF704738B501220E
:10E2700004460D46B0F89810D0F89400FFF7E2FF7E
:10E2800000B1057004F13C0204F1940104F1540062
:10E29000BDE83840FFF7E6BF80F830107047F8B5AA
:10E2A00004460F46002968D0002866D091F87A30DD
:10E2B0001BB191F89830002B61D1D7F8A030042B16
:10E2C0005DD0D7F89C30042B59D007F178060FCEDB
:10E2D0004FF0000C251D84F802C00FC50FCE0FC5EE
:10E2E00096E8070085E8070084F830C0D7F8A43026
:10E2F0006363D7F8A830A3634FF6FF7504F1940366
:10E30000C4F8A430A4F8A8500722614604F1AA007A
:10E3100004F0C7F823780BB984F85450224604F16E
:10E3200055011F25C4F89410384622F8985FFFF76E
:10E33000A3FD08BB224604F17401C4F89C1007F148
:10E340003C0022F8A05FFFF797FDA8B9A369A4F8E5
:10E3500048304FF480730125A4F85030636920647D
:10E36000014684F83C50636404F13C0204F154001B
:10E37000FFF778FF00B92570F8BD0E20FCE70720F5
:10E38000FAE7F8B5077804460D46002F00F0F9804B
:10E3900000F1AA06A17007220021304604F081F89E
:10E3A000E38813B1A378012B04D0E3794BB1A378B0
:10E3B000022B06D1636BA3B1012284F8B12008209F
:10E3C0009847334604F1B00113F8012F12B98B427C
:10E3D000FAD117466B1E032B52D8DFE803F0050B6A
:10E3E0000F1284F8B130ECE7A3791BB194F8243014
:10E3F00003B95FB9E3790BB1002F43D1237A002B26
:10E4000042D1637A002B0CBF00250425636BA570F5
:10E41000002B3BD0033D012D38D86279002A35D03E
:10E4200094F8B22092BB84F8B420012284F8B3207F
:10E430000720984704F13C0518220021284604F0E3
:10E4400030F8E36A591E0122022928BF134684F8D6
:10E45000513094F8243084F83C2033B1914296BF77
:10E46000A36A84F8522084F85230A278002384F8FA
:10E470005030042A1BD8DFE802F06C0D2232520023
:10E480000025C3E70225C1E70325BFE7002384F881
:10E49000B330CFE7C4F8A430C4E9106302230122EB
:10E4A00084F83C30802384F83120A4F84830A378E5
:10E4B000002B51D1636B002B5FD100205CE0022365
:10E4C00084F83130032384F83C302369A4F84830C1
:10E4D0000023C4F8A430E36826646364E7E7636953
:10E4E0006364A369A4F848306379B3B194F8B23097
:10E4F0009BB994F8B43083B1022384F850300421DE
:10E500002046FFF7B3FE0028D1D1052384F831302F
:10E5100004F19403C4F8A430C9E70323F6E7E369E0
:10E520006364236AA4F84830637983B194F8B23005
:10E530006BB994F8B43053B1022384F850300421FD
:10E540002046FFF793FE0028B1D10623DEE704231F
:10E55000DCE784F83130AAE72A46D4F8A41004F1A5
:10E560005400FFF77FFE38B994F8301094F8540047
:10E57000FFF77AFE00289DD0F8BD94F83100984747
:10E580009BE70820F8E70388112B10B50C460AD04A
:10E59000262B1FD0102B05D1C37B012B02D18388E2
:10E5A000A1F8A83010BD0022838881F8B220B1F80C
:10E5B000A8209A42F6D10B79002BF3D101212046F5
:10E5C000FFF7DFFE0028EDD0A36B002BEAD0BDE8FB
:10E5D00010401847037A013B012BE3D889780523C3
:10E5E0000131B1FBF3F303EB8303C91AC9B2E6E7C8
:10E5F000704775DF704776DF70477ADF70477BDFE3
:10E6000070470000034B1A8882420CBF1846002056
:10E61000704700BFBC290020024B9B6903B118471B
:10E62000704700BFA029002073B586B23046FFF7BF
:10E63000E9FF044670B1164D027A2B7B9A420BD249
:10E6400000F10A013046FFF7D4FFE8B1112801D0EC
:10E65000FFF7E2FF02B070BD002303722B7C43B1D1
:10E660003B213046FFF7C7FF30F0080301D0FFF72A
:10E67000D3FF6B69002BEDD000228DF80420ADF89C
:10E68000066001A89847E5E7237A01332372E1E7A2
:10E69000A029002013B50B46497A0F4C024669B9F0
:10E6A000D4E901101C7A002C18BF01465868FBF70A
:10E6B00087FF08B1FFF7B0FF02B010BD002119724B
:10E6C0006369002BF8D00121ADF806008DF8041025
:10E6D00001A89847F0E700BFA02900204B880288D6
:10E6E0009A4213D842889A4210D380888A8840F28E
:10E6F000F313984294BF031AC31A934206D800F248
:10E70000F310904234BF0020012070470020704772
:10E710000388112B70B5014648D002D8102B1ED0AB
:10E7200070BD122B52D0502BFAD12F4BC288DB89EF
:10E730009A42F5D1038A022BF2D186883046FFF740
:10E7400061FF05460028EBD001F1120000F0B4F99A
:10E7500030BB6868FBF77AFF0028E1D009E0C37B93
:10E76000012BDDD14FF6FF70FFF74CFF054620B9B6
:10E770000420BDE87040FFF74FBF1C4A8E8806801A
:10E78000002303721368C5F80A300A3053684360E7
:10E790001031FFF7A3FF144B6872DB89002BBFD148
:10E7A00029463046BDE87040FFF774BF8088FFF708
:10E7B00029FF04460028B3D04068FBF747FF08B1A3
:10E7C000FFF72AFF4FF6FF732380A9E786883046BC
:10E7D000FFF718FF05460028A2D008310A30FFF7DE
:10E7E0007DFF6872DCE700BFA0290020D02900204F
:10E7F000F8B5064648B305460FCD154F3C460FC445
:10E8000095E8070084E807003068124C3C60B0B11E
:10E81000FFF7F3FEC0B93268136823605368636082
:10E820000D480E4A4FF6FF7303800D4B40F8043F2E
:10E830000021FBF7B3FE002818BF032004E02046A8
:10E84000FFF7DDFE0028EBD0F8BD0E20FCE700BF8F
:10E85000A0290020D0290020BC29002029E60100A1
:10E86000D8290020F7B5174601900E4691B1019CBA
:10E870006CB100252C46294601A8FCF7C7FE18B14B
:10E880003946A8B2B04701340135142DF3D12046E2
:10E8900003B0F0BD0C46FAE773B50191019C064642
:10E8A0006CB100252C46294601A8FCF7AFFE18B133
:10E8B00006EB440301349D800135142DF3D130461D
:10E8C000346002B070BD00002DE9F04703888488F1
:10E8D000112B8CB006463CD01A2B3FD0102B17D1F1
:10E8E000274DAB68DB43009369686846FCF7EFFE91
:10E8F000009901A8FFF7D0FF0DF108094FF00008BB
:10E90000019B984507D3132C13D90420FBF7BEFBBA
:10E910000CB0BDE8F08739F802AB0027013751464B
:10E9200005EB8700FCF768FE1D2FF7D108F1010801
:10E93000E6E721461348FCF748FE21461248FCF75B
:10E9400044FEF37B012BE3D010482146FCF73DFE4B
:10E95000DEE70C482146FCF74FFED9E7057A0C4864
:10E960002D09012D214606D9FCF72FFE022D214647
:10E970000848F0D0EAE7FCF73FFE21460548EAE701
:10E98000F8290020002A0020FC290020042A002069
:10E99000082A00200C2A00201328014602D8024829
:10E9A000FCF734BE00207047FC290020FFF7F4BFBD
:10E9B00010B50446FFF7F0FF38B121460348FCF7D5
:10E9C00025FE002814BF0220012010BD002A0020CF
:10E9D00010B50446FFF7E0FF28B121460248BDE824
:10E9E0001040FCF713BE10BD082A002010B50446E5
:10E9F000FFF7D2FF28B121460248BDE81040FCF7DE
:10EA000005BE10BD0C2A002008B518210248FCF7ED
:10EA100006FEC0B208BD00BFF829002070B50A4D3F
:10EA2000064628460C46FCF7F1FD58B13046FFF784
:10EA3000B3FF38B1A01D314605EB8000BDE8704042
:10EA4000FCF7E4BD002070BDF8290020F8B50D4C9E
:10EA5000054620460E461746FCF7D8FD80B12846ED
:10EA6000FFF79AFF60B1B01D04EB800029461FB18B
:10EA7000BDE8F840FCF7A9BDBDE8F840FCF7BCBD17
:10EA8000F8BD00BFF8290020F8B50A4C05460E462F
:10EA9000014620461746FCF7B9FD48B1043504EBA2
:10EAA00085043A46A0683146BDE8F840FFF7DABE73
:10EAB000F8BD00BFF8290020007800F00100704781
:10EAC000A0DF7047A1DF7047ADDF7047B3DF70474D
:10EAD000024B034918780022FFF7D6BF792A00209D
